:03000E00000000EF
:0405DD008F0F8D10DF
:1005E10078117C007D007BFF7A00790E7E007F030D
:1005F1001200F67511A5850F128510137B007A0084
:0706010079117D0402055C84
:0B000300EF1FAC0670011E4C70F622CF
:10047D00E4F509F50A7F807E25FDFC1205AF7FE8C6
:10048D007E031200037D017F651205DDE55460FCDE
:10049D00E4F509F50AE5582404FFE433FEC3E50A43
:1004AD009FEE6480F8748098500E7455250AF8E616
:1004BD002509F509050A80DD7455250AF8E6650953
:1004CD00701CE559F50BE55AF50C855B0D855C0E39
:1004DD007B007A0079597513157D041204F0E4F54B
:0304ED005480A98F
:10060800015300014900094A0000000000000000F1
:0106180000E1
:03001300020011D7
:0100110032BC
:0300230002035085
:10035000C0E0C0F0C083C082C0D075D000C000C073
:0D03600001C002C003C004C005C006C007F4
:10036D00750800309905C299755E0030985BAF49EC
:10037D000549744A2FF8A699C298E54A645A600354
:10038D00754900E549B40209E54B645A60037549A6
:10039D0000E549D394034031E54D2405FFE433FED8
:1003AD00E549B50724E4B50620E54C24EB7017E5C7
:1003BD0054701378557C00FDFB7A00794AFE7F0955
:0903CD001200F675540175490097
:1003D600D007D006D005D004D003D002D001D0007B
:0B03E600D0D0D082D083D0F0D0E03225
:10062B0000000000000000000000000000000000BF
:0E063B000000000000000000000000000000B1
:10061900015E0001540009550000000000000000BF
:0106290000D0
:1005AF008F128E118D108C0F759850438920AB12BE
:1005BF00AA11A910A80FE47F807E70FDFC1201F034
:0E05CF00EFF404F58DF58B43884043A890228D
:0A001600E55E70FC8F99755E012213
:06055C008B328A33893462
:10056200E4F535E535C39D5043ED14FFE535C39FF2
:100572005022AB32AA33A934853582758300120129
:100582001CFFED75830024FFF582E58334FFF583BC
:10059200EF120149AB32AA33A934AF3505358F8248
:0C05A20075830012011CFF12001680B7C8
:0105AE00222A
:0804F0008B0F8A1089118D1297
:1004F80078147C007D007BFF7A06792B7E007F1EB6
:100508001200F6E4FF0F2414F8765A0F741424012D
:10051800F8765A0F74142402F8A6130F74142403DF
:10052800F8A612E4FEEEC39512501BAB0FAA10A951
:10053800118E8275830012011CFDAC070F74142CF8
:10054800F8A6050E80DF7B007A007914E5122405F1
:04055800FD02055C3F
:0802AE008B368A3789388D393F
:1002B600E4F548FDE53975F002A42405FFE435F0C0
:1002C600FE7B007A00793B120282AF480548743BF8
:1002D6002FF8765AAF480548743B2FF8765AAF4840
:1002E6000548743B2FF8A63AE53925E0FFAE4805E8
:1002F60048743B2EF8A607E4FDEDC39539503BAB99
:1003060036AA37A93875F002EDA4F58285F0831276
:10031600017CE5F0FFAE480548743B2EF8A607754C
:10032600F002EDA4F58285F08312017CFFAE48054C
:1003360048743B2EF8A6070D80BF7B007A00793BF8
:0A034600E53925E02405FD02055C01
:030000000203F107
:0C03F100787FE4F6D8FD75815E020438C8
:10002600E709F608DFFA8046E709F208DFFA803EBC
:1000360088828C83E709F0A3DFFA8032E309F608A9
:10004600DFFA8078E309F208DFFA807088828C8311
:10005600E309F0A3DFFA806489828A83E0A3F608C5
:10006600DFFA805889828A83E0A3F208DFFA804C9F
:1000760080D280FA80C680D4806980F28033801076
:1000860080A680EA809A80A880DA80E280CA8033DF
:1000960089828A83ECFAE493A3C8C582C8CCC58357
:1000A600CCF0A3C8C582C8CCC583CCDFE9DEE78027
:1000B6000D89828A83E493A3F608DFF9ECFAA9F0A6
:1000C600EDFB2289828A83ECFAE0A3C8C582C8CCFC
:1000D600C583CCF0A3C8C582C8CCC583CCDFEADE15
:1000E600E880DB89828A83E493A3F208DFF980CC77
:1000F60088F0EF60010E4E60C388F0ED2402B40470
:100106000050B9F582EB2402B4040050AF23234516
:06011600822390007673C5
:10011C00BB010CE58229F582E5833AF583E0225098
:10012C0006E92582F8E622BBFE06E92582F8E222E2
:0D013C00E58229F582E5833AF583E49322FC
:10014900BB010FF8E58229F582E5833AF583E028BA
:10015900F0225009C58229F8E58226F622BBFE095C
:10016900C58229F8E22582F222F8EA2583F583E996
:03017900932822A6
:10017C00BB0110E58229F582E5833AF583E0F5F0C1
:10018C00A3E0225009E92582F886F008E622BBFE9E
:10019C000AE92582F8E2F5F008E222E5832AF583E4
:0801AC00E993F5F0A3E99322A9
:1001B40075F008758200EF2FFFEE33FECD33CDCC02
:1001C40033CCC58233C5829BED9AEC99E582984085
:1001D4000CF582EE9BFEED9AFDEC99FC0FD5F0D662
:1001E400E4CEFBE4CDFAE4CCF9A88222B800C1B98C
:1001F4000059BA002DEC8BF084CFCECDFCE5F0CBCA
:10020400F97818EF2FFFEE33FEED33FDEC33FCEB02
:1002140033FB10D703994004EB99FB0FD8E5E4F9BD
:10022400FA227818EF2FFFEE33FEED33FDEC33FCAA
:10023400C933C910D7059BE99A4007EC9BFCE99A9E
:10024400F90FD8E0E4C9FAE4CCFB2275F010EF2FE3
:10025400FFEE33FEED33FDCC33CCC833C810D707E3
:100264009BEC9AE899400AED9BFDEC9AFCE899F81E
:0E0274000FD5F0DAE4CDFBE4CCFAE4C8F922B1
:10028200EF4E6012EF60010EEDBB010B89828A8393
:10029200F0A3DFFCDEFA2289F05007F709DFFCA9A0
:0C02A200F022BBFEFCF309DFFCA9F022F7
:1003FD0002047DE493A3F8E493A34003F68001F295
:10040D0008DFF48029E493A3F85407240CC8C33300
:10041D00C4540F4420C8834004F456800146F6DFCF
:10042D00E4800B0102040810204080900608E47E51
:10043D00019360BCA3FF543F30E509541FFEE493C4
:10044D00A360010ECF54C025E060A840B8E493A38B
:10045D00FAE493A3F8E493A3C8C582C8CAC583CAB6
:10046D00F0A3C8C582C8CAC583CADFE9DEE780BE6E
:01062A0000CF
:00000001FF
