:0D00030000000000000000000000000000F0
:06078A00013E00013F00EA
:1006B6008F0D8E0C8D0B8C0A759850438920AB0DCF
:1006C600AA0CA90BA80AE47F807E70FDFC12022109
:0E06D600EFF404F58DF58B43884043A8902285
:0A07AD00E53E70FC8F99753E0122B5
:0605B8008B1D8A1E891F45
:1005BE00E4F520E520C39D5043ED14FFE520C39FD5
:1005CE005022AB1DAA1EA91F852082758300120121
:1005DE001CFFED75830024FFF582E58334FFF58360
:1005EE00EF120149AB1DAA1EA91FAF2005208F8255
:0C05FE0075830012011CFF1207AD80B7CE
:01060A0022CD
:08048D008B218A2289238D24B2
:1004950078267C007D007BFF7A0079037E007F0D46
:1004A5001200F6E4FF0F2426F8765A0F742624016D
:1004B500F8765A0F74262402F8A6250F742624030D
:1004C500F8A624E4FEEEC39524501BAB21AA22A96D
:1004D500238E8275830012011CFDAC070F74262C38
:1004E500F8A6050E80DF7B007A007926E524240531
:0404F500FD0205B847
:0802DF008B0A8A0B890C8D0DBE
:1002E700E4F51CFDE50D75F002A42405FFE435F0E7
:1002F700FE7B007A00790F1202B3AF1C051C740F46
:100307002FF8765AAF1C051C740F2FF8765AAF1CBE
:10031700051C740F2FF8A60EE50D25E0FFAE1C0592
:100327001C740F2EF8A607E4FDEDC3950D503BABEB
:100337000AAA0BA90C75F002EDA4F58285F08312C9
:10034700018EE5F0FFAE1C051C740F2EF8A607758D
:10035700F002EDA4F58285F08312018EFFAE1C0535
:100367001C740F2EF8A6070D80BF7B007A00790F4B
:0A037700E50D25E02405FD0205B8A0
:0B079000013D00013900033A000000A9
:030013000207B72A
:0107B700320F
:0300230002055C77
:0D055C00C0E0C0D075D000C000C006C007D0
:10056900E4309904C299F53E309839AE39053974A9
:100579003A2EF8A699C298E53AB4A503D38001C3E7
:100589004003753900E539B4031AE53A253BB53C12
:1005990010E53BB4BB03753F01E53BB45103753F1F
:0405A90000753900A0
:0B05AD00D007D006D000D0D0D0E03244
:020021000000DD
:030010008F10222C
:10070B00D2B77F01120010D2B612001020B7021F11
:10071B0022C2B77F0112001030B7021F22C2B67F70
:05072B00011200102284
:10079C00C2B7C2B67F01120010D2B6120010D2B787
:0107AC00222A
:10077500BF0104D2B78002C2B7D2B67F0112001002
:05078500C2B6020010E5
:10075500E4FFD2B7D2B630B7040FBF02F930B70500
:0F076500C2B67F00227F01120010C2B612001030
:010774002262
:02073000AE0712
:10073200C2B6E4FDEE30E704D2B78002C2B7D2B649
:100742007F01120010C2B6120010EE25E0FE0DBDB0
:0207520008E2BB
:010754002282
:1006E400E4FED2B77F01120010FDEE25E0FED2B683
:1006F40030B7034306017F01120010C2B612001086
:060704000DBD08E6AF0682
:01070A0022CC
:10060B00AE07AC03AB0512070BEF70028025AF06EC
:10061B00120730120755EF70028018AF0312073024
:10062B00120755EF7002800BAF04120730120755FB
:0E063B00EF700512079CFF2212079C7F012220
:10040D008D348B358A368937AC0712070BEF7002A6
:10041D00802EAF04120730120755EF70028021AF06
:10042D0034120730120755EF7002801412070BEFCC
:10043D007002800CEC04FF120730120755EF7005A7
:10044D0012079CFF22E53814601E1206E4AB350539
:10045D0037E537AA367002053614F9EF12017CE440
:10046D00FF120775153880DD1206E4AB35AA36A9E3
:10047D0037EF12017C7F0112077512079C7F012255
:10064900AE077F2812001012070BEF7002801DAF52
:1006590006120730120755EF700280107F2812002A
:10066900107F51120730120755EF700512079CFFD2
:070679002212079C7F012201
:0804F9008F0A8B0B8A0C890DA0
:10050100780E7C007D007BFF7A0079217E007F02DE
:100511001200F612070BEF7002800BAF0A120730C0
:10052100120755EF700512079CFF227F321200104F
:100531001206E48F0EE4FF1207751206E48F0F7F97
:100541000112077512079CE50EFFE50FAB0BAA0C14
:0A055100A90DCF8FF01201C67F0143
:01055B00227D
:0B001600EF1FAC0670011E4C70F622BC
:0B0680007F807E257D007C001206B606
:10068B00E4F508F509FB7A0079087FE11204F97F9C
:10069B00E01206497B007A007908750E457D011240
:0906AB0002DF7F607EEA120016F6
:0206B40080D5EF
:0300000002038177
:0C038100787FE4F6D8FD75813F0203C8C8
:10002600E709F608DFFA8046E709F208DFFA803EBC
:1000360088828C83E709F0A3DFFA8032E309F608A9
:10004600DFFA8078E309F208DFFA807088828C8311
:10005600E309F0A3DFFA806489828A83E0A3F608C5
:10006600DFFA805889828A83E0A3F208DFFA804C9F
:1000760080D280FA80C680D4806980F28033801076
:1000860080A680EA809A80A880DA80E280CA8033DF
:1000960089828A83ECFAE493A3C8C582C8CCC58357
:1000A600CCF0A3C8C582C8CCC583CCDFE9DEE78027
:1000B6000D89828A83E493A3F608DFF9ECFAA9F0A6
:1000C600EDFB2289828A83ECFAE0A3C8C582C8CCFC
:1000D600C583CCF0A3C8C582C8CCC583CCDFEADE15
:1000E600E880DB89828A83E493A3F208DFF980CC77
:1000F60088F0EF60010E4E60C388F0ED2402B40470
:100106000050B9F582EB2402B4040050AF23234516
:06011600822390007673C5
:10011C00BB010CE58229F582E5833AF583E0225098
:10012C0006E92582F8E622BBFE06E92582F8E222E2
:0D013C00E58229F582E5833AF583E49322FC
:10014900BB010FF8E58229F582E5833AF583E028BA
:10015900F0225009C58229F8E58226F622BBFE095C
:10016900C58229F8E22582F222F8EA2583F583E996
:03017900932822A6
:10017C00BB010689828A83F0225002F722BBFE0162
:02018C00F3225C
:10018E00BB0110E58229F582E5833AF583E0F5F0AF
:10019E00A3E0225009E92582F886F008E622BBFE8C
:1001AE000AE92582F8E2F5F008E222E5832AF583D2
:0801BE00E993F5F0A3E9932297
:1001C600BB010A89828A83F0E5F0A3F0225006F784
:0F01D60009A7F01922BBFE06F3E5F009F3192281
:1001E50075F008758200EF2FFFEE33FECD33CDCCD1
:1001F50033CCC58233C5829BED9AEC99E582984054
:100205000CF582EE9BFEED9AFDEC99FC0FD5F0D630
:10021500E4CEFBE4CDFAE4CCF9A88222B800C1B95A
:100225000059BA002DEC8BF084CFCECDFCE5F0CB98
:10023500F97818EF2FFFEE33FEED33FDEC33FCEBD1
:1002450033FB10D703994004EB99FB0FD8E5E4F98C
:10025500FA227818EF2FFFEE33FEED33FDEC33FC79
:10026500C933C910D7059BE99A4007EC9BFCE99A6D
:10027500F90FD8E0E4C9FAE4CCFB2275F010EF2FB2
:10028500FFEE33FEED33FDCC33CCC833C810D707B2
:100295009BEC9AE899400AED9BFDEC9AFCE899F8ED
:0E02A5000FD5F0DAE4CDFBE4CCFAE4C8F92280
:1002B300EF4E6012EF60010EEDBB010B89828A8362
:1002C300F0A3DFFCDEFA2289F05007F709DFFCA96F
:0C02D300F022BBFEFCF309DFFCA9F022C6
:10038D00020680E493A3F8E493A34003F68001F200
:10039D0008DFF48029E493A3F85407240CC8C33371
:1003AD00C4540F4420C8834004F456800146F6DF40
:1003BD00E4800B010204081020408090078AE47E3F
:1003CD00019360BCA3FF543F30E509541FFEE49335
:1003DD00A360010ECF54C025E060A840B8E493A3FC
:1003ED00FAE493A3F8E493A3C8C582C8CAC583CA27
:1003FD00F0A3C8C582C8CAC583CADFE9DEE780BEDF
:01079B00005D
:00000001FF
